:020000040800F2
:10000000B01100209D010008DD220008A7010008B2
:10001000D9220008DB0E00082B3100080000000088
:100020000000000000000000000000006926000839
:10003000E90F000800000000B3010008B501000846
:10004000B7010008B7010008B7010008B7010008B0
:10005000B7010008B7010008B7010008B7010008A0
:10006000B7010008B7010008B7010008B701000890
:10007000B7010008B7010008B7010008B701000880
:10008000B7010008B7010008B7010008B701000870
:10009000B7010008B7010008B7010008B701000860
:1000A000B7010008B7010008B7010008B701000850
:1000B0002D280008C1280008B7010008B701000872
:1000C000B7010008B7010008B7010008B701000830
:1000D000B7010008C52C00084D2D0008B12D0008FF
:1000E000B7010008B7010008B7010008B701000810
:1000F000B7010008B7010008B7010008B701000800
:10010000B7010008B701000895290008B7010008E9
:10011000B7010008B7010008B7010008B7010008DF
:10012000B7010008B7010008B7010008B7010008CF
:10013000B7010008B7010008B7010008B7010008BF
:10014000B7010008B7010008B7010008B7010008AF
:10015000B7010008B7010008B7010008B70100089F
:10016000B7010008B7010008B7010008B70100088F
:10017000B7010008B7010008B7010008B70100087F
:10018000B7010008B7010008DFF80CD000F04EFE00
:10019000004800474D4B0008B0110020064880473A
:1001A00006480047FEE7FEE7FEE7FEE7FEE7FEE75C
:1001B000FEE7FEE7FEE7FEE7C52700088901000825
:1001C0002DE9F05F0546002092469B46884606468C
:1001D000814640241BE0284641464746224600F01F
:1001E00042FC53465A46C01A914110D31146184654
:1001F000224600F029FC2D1A67EB01084F462246E3
:100200000120002100F020FC17EB00094E41201EC8
:10021000A4F10104DFDC484631462A464346BDE8E6
:10022000F09FA0F14101192900D82030704710B586
:10023000431A934209D28318881803E010F8011D6D
:1002400003F8011D521EF9D210BD40EA01039B07BD
:1002500003D009E008C9121F08C0042AFAD203E03B
:1002600011F8013B00F8013B521EF9D210BDD2B289
:1002700001E000F8012B491EFBD270470022F6E78F
:1002800010B513460A4604461946FFF7F0FF20460C
:1002900010BD10B5044604E00B7800F8013B03B133
:1002A000491C521EF8D2204610BD421C10F8011BFA
:1002B0000029FBD1801A704710B5002200E0521CC3
:1002C000835C8C5CA34201D1002BF8D1D8B2E1B29F
:1002D000401A10BD30B504460020034600E05B1C08
:1002E000934203D2E05CCD5C401BF8D030BD30B50A
:1002F00005460020034600E05B1C934205D2EC5CFF
:10030000C85C201A01D1002CF6D130BD2DE9FF4F79
:10031000087883B09946FF2805D0491C2D2804D0C1
:100320000024002008E000200BE00124F9E700EBA6
:10033000800003EB4000491C0B78FF2BF7D104B180
:10034000404200230293147819461D462D2C01D0FB
:100350002B2C04D1521C2D2C13D000240294AA461D
:100360001478FF2C0FD00A25A3FB057801FB05812B
:100370004FF0000C03FB0C11521CE3194AEB010176
:10038000EEE70124EAE7814453EA010002D019F5BF
:10039000C87F06DA03980021C0E9001107B0BDE864
:1003A000F08F0025AE4E2F46DFF8B882184600F0D9
:1003B00013FDCDE90001B9F1000002DAC9F1000432
:1003C00000E004460023A74A1AEB030B42EB045A51
:1003D00012E0E00707D02A4633463846414600F08F
:1003E00031FA074688462A4633461046194600F039
:1003F00029FA05460E466410002CEAD1DDE9000119
:10040000B9F1000F5A46534606DA00F076FC3A4638
:10041000434600F072FC05E000F014FA3A46434609
:1004200000F010FA029A0AB181F00041039AC2E981
:100430000001B3E72DE9FF4F1F468DB0D7E9014614
:100440004FF0FF382E2045464FF000090B90B96958
:100450006D1C0E988847396A824688470028F6D175
:10046000BAF1FF3F0AD024F4D064002E11DDBAF1B6
:100470002B0F08D0BAF12D0F0BD102E0404611B07E
:100480008DE744F48064B9696D1C0E9888478246F4
:10049000761E6946600501D52D2000E02B208DF8E1
:1004A000000001F1010B0DF1200809E0B9696D1C94
:1004B0000E98884782460F9844F40074761E0560B3
:1004C000002E02DDBAF1300FF0D00B998A453ED1F3
:1004D00044F0800406E00F99681CA9F1010944F476
:1004E00000740860B9696D1C761E0E9888478246B4
:1004F0003028F0D02BE00B998A4505D1200603D493
:1005000044F08004761E18E0504603F003FB08B365
:100510000DF11301761E44F400748B4508D2AAF144
:1005200030000BF8010B200607D5A9F1010003E00C
:10053000200602D409F101008146A00502D50F99D9
:10054000681C0860B9696D1C0E9888478246002EA9
:10055000D1DC53E0002E51DDBAF1650F02D0BAF1C3
:10056000450F4BD1A00549D5B9696D1C24F44074E1
:10057000761E0E9888478246002E0CDD2B2804D06C
:10058000BAF12D0F07D144F48074B9696D1C0E982F
:1005900088478246761EE00501D52D2100E02B21FB
:1005A00008F8011BCDF82C8021E00DF12901761E01
:1005B00044F4007488450CD2AAF1300010F0FF001A
:1005C00088F8000002D10B99884509D908F1010883
:1005D00006E0E00501D5244801E042F20F708146B3
:1005E000B9696D1C0E98884782460F980560002EE9
:1005F00004DD504603F08EFA0028D6D1F9690E9832
:100600008847FF208BF8000088F800000020069043
:1006100007904B466A4608A906A8FFF777FEA00593
:1006200002D46FF001002AE714F0240F0AD0E0078B
:1006300014D1DDE906123868031D3B600068C0E98B
:1006400000120BE0DDE9060100F0D2FB0146E007F5
:1006500004D13868021D3A600068016028460EE740
:10066000000014400000F03FF1D8FFFF2DE9F047F3
:1006700091460F4680460446002614F8015B2DB1D2
:1006800000F014FA0068405DC007F6D12B2D02D0AF
:100690002D2D18D0641E4A463946204600F033FA04
:1006A00027B13968A14201D1C7F8008071054FF028
:1006B00002040BD54042002803DD02F08DFD0460EA
:1006C000A007BDE8F08746F48066E4E70028F8DA82
:1006D00002F082FD04606FF00040F2E770B506465C
:1006E00002F07AFD046805460A2200213046FFF731
:1006F000BDFF2C6070BD2DE9FE4F804681EA0300EE
:10070000C00F0C46009021F0004123F00045B8EBEB
:100710000200A94105D24046214690461C460B46A0
:10072000024623F00040104347D0270DC7F30A00CC
:10073000C3F30A510290401A019040286BDAC3F3C8
:10074000130040F4801B0098924620B10023D2EBA6
:10075000030A63EB0B0B01985946C0F14002504667
:1007600000F072F906460D4650465946019A00F0CF
:100770008AF910EB08006141002487EA115284EAEB
:10078000E7731A4340D0009A62B3019A012A4FEAF4
:10079000075215DC001B61EB02014FF0004202EA38
:1007A0000752CDE90042001C41F5801132462B462C
:1007B00000F055FA03B0BDE8F08F40462146F9E756
:1007C000001B61EB0201001C41F5801300185B4126
:1007D0002018A2F5001747EB030140EAD570B619BF
:1007E0006D4111E06D084FEA360645EAC0754FEAE3
:1007F0000752001B61EB0201001C41F58011490802
:100800004FEA30000019514132462B4603B0BDE893
:10081000F04F00F015BA0098012240000023D0EB01
:10082000020263EBE073009821464FEAE074B8EBF4
:10083000000061EB0401E9E783F000435BE781F02E
:10084000004158E72DE9FE4F81EA030404F000441B
:1008500021F0004100944FF0000B23F0004350EAD8
:1008600001045ED052EA03045BD0C3F30A54C1F31F
:100870000A552C44A4F2F3340194A0FB0254C1F3B2
:10088000130141F48011C3F3130343F4801301FBFC
:10089000024400FB034E840A970A44EA815447EA63
:1008A0008357A4FB076802958D0A05FB07854FEA6D
:1008B000932C04FB0C542705029D4FEA065847EA87
:1008C0001637B5EB08056EEB070C870E920E47EA5C
:1008D000811742EA8312A7FB0201B6EB0B0164EB1E
:1008E00000042B0D43EA0C335E1844EB1C50DA462F
:1008F0005146E7FB0201C5F313044FEA0B3343EA09
:1009000014534FEA0432019C43EA0603A4F10C0499
:100910000294009CCDE900B400F0A1F903B0BDE859
:10092000F08F00200146F9E770B5C1F30A5201F0DB
:1009300000450024C1F3130140F2FF3341F480115C
:100940009A4201DA002070BD40F233439A42A2F28B
:10095000334203DC524200F086F800E090402C4322
:10096000F1D0404270BDC1F30A52C1F3130140F20D
:10097000FF3341F480119A4202DA002001467047A9
:1009800040F233439A42A2F2334202DC524200F078
:100990006AB800F059B800F0004230F000400AD0C8
:1009A000C10D01F56071C0F3160042EA0151C208A1
:1009B00040071143704700200146704730B5041EC0
:1009C00071F1000404DB4FF00044404264EB01018C
:1009D000141E73F1000405DB1C464FF00043524225
:1009E00063EB04038B4208BF824230BD30B5041E66
:1009F00071F1000404DB4FF00044404264EB01015C
:100A0000141E73F1000405DB1C464FF000435242F4
:100A100063EB0403994208BF904230BD30B50B46EA
:100A2000014600202022012409E021FA02F59D421E
:100A300005D303FA02F5491B04FA02F52844151EF2
:100A4000A2F10102F1DC30BD202A04DB203A00FAD9
:100A500002F1002070479140C2F1200320FA03F315
:100A6000194390407047202A04DB203A21FA02F013
:100A70000021704721FA02F3D040C2F120029140D8
:100A8000084319467047202A06DBCB17203A41FA63
:100A900002F043EAE07306E041FA02F3D040C2F10B
:100AA00020029140084319467047000000487047F3
:100AB000E870000810B50446FFF7F8FF0068005D15
:100AC00000F0010010BD426842B1016811F8013B1D
:100AD00023B1521EC0E90012184670470121C160BF
:100AE000881E704742685AB1C368016843B9836879
:100AF0008B4205D0491E521CC0E9001200207047ED
:100B00004FF0FF3070472DE9F05F824600780027F4
:100B100015468B460AF10104B946302801D09DB133
:100B200013E014F8010B0127782803D0582801D0CE
:100B300045B10AE00DB1102D07D10027102514F89A
:100B4000010B02E0082500E00A250026B0460EE071
:100B500005FB080005FB06F1012701EB10461FFA13
:100B600080F8B6F5803F00D3B94614F8010B29464A
:100B700000F06EF90028EBDABBF1000F05D00FB1E1
:100B8000641E00E05446CBF80040B9F1000F06D0D7
:100B900002F022FB02210160C81EBDE8F09F48EA76
:100BA0000640FAE70FB4002300B589B00CA9009104
:100BB0000B996FF00042CB601E4B06931E4B0793C0
:100BC0000423CDE901321D4A089202466B460020FB
:100BD000FFF730FC09B05DF814FB70B586B006462F
:100BE0004FF0FF300091CDE90101002015460C4681
:100BF00004903246694604A8FFF7D4FF02460498E1
:100C0000211825B108B1084600E020462860049864
:100C100000280DD0002A02DD0098884208D0081B69
:100C20000094CDE901043246694604A8FFF7BAFFF3
:100C300006B070BDC70A0008E50A0008B50A00083A
:100C400010B5141E73F1000408DA401C41F10001D4
:100C500092185B411A4301D120F0010010BD2DE92B
:100C6000F04D92469B4611B1B1FA81F202E0B0FA22
:100C700080F220329046FFF7E7FE04460F4640EA36
:100C80000A0041EA0B0153465A46084313D0114665
:100C900053EA010019D0C8F140025046FFF7E3FEC5
:100CA00005460E46504659464246FFF7CDFE0843DC
:100CB00005D0012004E020463946BDE8F08D002033
:100CC000054346EAE0762C4337430A986305E40A75
:100CD000A0EB08000022FD0A44EA47540A3002D57E
:100CE00000200146E9E7010510196941DDE90845E1
:100CF00000196941BDE8F04DA2E72DE9F04D81EA08
:100D0000030404F0004B21F0004514464FF0000AA4
:100D100023F0004150EA050220D054EA01021DD020
:100D2000C5F30A570246C5F31303C1F31300C1F319
:100D30000A5640F4801543F48013A7EB0608101BF5
:100D4000D64608F2FD3873EB050002D308F101081E
:100D500001E092185B41B8F1000F03DA0020014670
:100D6000BDE8F08D00204FF48011064684460EE069
:100D7000171B73EB050705D3121B63EB0503064333
:100D80004CEA010C49084FEA300092185B4150EAE6
:100D90000107EDD152EA030012D082EA040083EA8F
:100DA0000501084305D0101BAB4106D201220023E8
:100DB00006E000224FF0004302E06FF00102531002
:100DC0001AEB06004CEB085110EB0A0041EB0B014B
:100DD000BDE8F04DFFF734BF0EB540F2334202924A
:100DE0000022CDE900221346FFF739FF03B000BD12
:100DF00001F0004330B421F0004150EA010206D076
:100E00000A0DA2F56072C1F31301002A02DC30BCA6
:100E100000207047440F44EAC104C100E01830BC10
:100E200000EBC25000F022B800207047064C074D7E
:100E300006E0E06840F0010394E8070098471034AA
:100E4000AC42F6D3FFF7A4F9A0720008C072000804
:100E50003A2800D2303820F02002412A01D3A2F1F2
:100E60003700884201D34FF0FF3070470029A8BFF8
:100E70007047401C490008BF20F00100704710B4C3
:100E8000B0FA80FC00FA0CF050EA010404BF10BC78
:100E9000704749B1CCF1200421FA04F411FA0CF1A5
:100EA00018BF012121430843A3EB0C01CB1D4FEADE
:100EB00000614FEA102042BF002010BC704700EBD9
:100EC000C35010440029A4BF10BC7047401C490007
:100ED00008BF20F0010010BC704700BFFEE710B54E
:100EE00000F060FA10BD38B5044600200090694655
:100EF000062000F02DFA08B1012038BD9DF8000051
:100F000003F0B2F900F5FA6020706946052000F0A0
:100F10001FFA08B10220F0E79DF8000003F0A4F9E1
:100F200060706946042000F013FA08B10320E4E77A
:100F30009DF8000003F098F9A0700020DDE738B5B7
:100F40000446002000906946022000F001FA08B132
:100F5000012038BD9DF8000003F086F9E070694675
:100F6000012000F0F5F908B10220F2E79DF8000039
:100F700003F07AF920716946002000F0E9F908B120
:100F80000320E6E79DF8000003F06EF96071002091
:100F9000DFE7000030B585B004460D466079217961
:100FA000E278A378CDE90132CDE9031060780090B2
:100FB000207800F5FA6304A21421284602F0E0F834
:100FC0000020E87405B030BD253034642D25303262
:100FD000642D2530326420253032643A2530326465
:100FE0003A253032640000007047F0B50A4600210F
:100FF0000023002400BF3DE0012505FA01F3156838
:1010000005EA03049C4234D105684F000326BE4024
:10101000B543056015794E00B54006683543056057
:101020001579012D02D01579022D16D185684F0052
:101030000326BE40B543856055794E00B5408668AD
:1010400035438560456801268E40B5434560456857
:1010500096798E40B6B235434560C5684F00032689
:10106000BE40B543C560D5794E00B540C66835432E
:10107000C560491C1029BFD3F0BDF0B50023002482
:101080004D07ED0E02FA05F3CE1000F1200555F8DC
:1010900026504E07F70E0F26BE40B543CF1000F185
:1010A000200646F82750CE1000F1200555F82650AE
:1010B00045EA0304CE1000F1200545F82640F0BDB6
:1010C0000246002013690B400BB1012000E0002014
:1010D0007047418370470183704700002DE9F0415C
:1010E000C4B004460D4621A2D2E900109268439292
:1010F00041914290002634E00A2141A801F0B6FA5D
:101100004FF47A7003F030FB192707E01A4890F883
:10111000040100B106E0142003F026FB381EA7F1FD
:101120000107F3D100BF144890F80401A8B10020D2
:101130000090694601A801F081FE2B462246BDF8C9
:10114000001001A801F04AF98046B8F1000F03D160
:10115000002044B0BDE8F08105E0642003F004FB0A
:10116000761C032EC8DB00BF0220F2E7FA42F173BF
:101170008E22000036FC0000A8080020F0B5C3B0A5
:1011800005461AA103C94291419000262AE0082190
:1011900041A801F06BFA19271EE0164890F80401E7
:1011A000B8B100200090694601A801F047FE2A4628
:1011B000BDF8001001A801F0CFF8044614B90020D2
:1011C00043B0F0BD032C01D0022C00D108E0204632
:1011D000F6E7642003F0C8FA381EA7F10107DCD156
:1011E00000BF761C032ED2DB0220E9E701030100D9
:1011F000000185F6A8080020F0B52DED048BC5B0E0
:101200003FA103C944914390002674E0082143A8FC
:1012100001F02CFA4FF4FA6003F0A6FA192707E060
:10122000394890F8040100B106E0142003F09CFA5C
:10123000381EA7F10107F3D100BF334890F804012D
:10124000002853D00020029002A903A801F0F6FD67
:101250000020019001AABDF8081003A805F0C6F807
:10126000044604B946E0002538E005EB850014F893
:101270002000022831D105EB850004EB800090EDC1
:10128000010AB0EE408A18EE100AFFF784FB41EC29
:10129000190B53EC192B1DA001F062FFF0EE000AB0
:1012A000B0EE480A01F0CAFFB0EE409AF0EE000A34
:1012B0009FED180A01F0C2FF39EE400ADFED160A71
:1012C00020EE200AF0EE408A204601F089FFB0EEC1
:1012D000680A45B0BDEC048BF0BD6D1C9DF80400A0
:1012E0008542C2DB204601F07BFF00BF642003F093
:1012F0003BFA00BF761C032E88DBBFEE000AE8E74E
:10130000AABB02400000C12AA808002046693A256D
:10131000660000006686B644BC74933D10B510218B
:101320000A48FFF7D6FE20210848FFF7D2FE022028
:1013300003F026FA10210548FFF7CDFE022003F046
:101340001FFA10210148FFF7C4FE10BD0010024033
:1013500070B505460C46002600F094F8D02000F049
:10136000F5F800F0C7F808B1012070BD284600F07C
:10137000EDF800F0BFF808B10220F6E700F082F8BF
:10138000D12000F0E3F800F0B5F808B10320ECE755
:10139000002000F041F80646267000F08DF800208D
:1013A000E3E700001CB50121102001F0B9F830205E
:1013B000009001208DF804008DF806008DF80700DC
:1013C00002208DF8050069460548FFF70EFE102142
:1013D0000348FFF780FE20210148FFF77CFE1CBD7B
:1013E0000010024010B510210A48FFF772FE2021BC
:1013F0000848FFF770FE022003F0C2F910210548EB
:10140000FFF769FE022003F0BBF910210148FFF746
:1014100060FE10BD0010024070B50546002420217A
:101420001748FFF758FE00261FE06006040E102143
:101430001348FFF74EFE022003F0A2F910211048D6
:10144000FFF749FE20210E48FFF73AFE08B144F0AD
:101450000104022003F094F910210948FFF739FE36
:10146000022003F08DF9701CC6B2082EDDDB15B129
:10147000FFF754FF01E0FFF7B5FF204670BD000005
:101480000010024010B520210A48FFF724FE102169
:101490000848FFF720FE052003F072F920210548D7
:1014A000FFF717FE052003F06BF910210148FFF745
:1014B00010FE10BD0010024010B520210C48FFF7AF
:1014C00008FE10210A48FFF704FE052003F058F932
:1014D00010210748FFF7FFFD052003F051F92021F7
:1014E0000348FFF7F8FD052003F04AF910BD00009E
:1014F0000010024010B5002410211348FFF7E9FD49
:1015000020211148FFF7E7FD012003F039F91021F0
:101510000D48FFF7E0FD0BE0601CC4B2B4F5967F08
:1015200003DDFFF7C9FF012010BD012003F028F9FA
:1015300020210548FFF7C4FD0028EDD11021024805
:10154000FFF7C7FD0020EFE70010024070B504462A
:10155000002524E010211348FFF7BBFD04F08000B4
:1015600020B120210F48FFF7B6FD03E020210D48F0
:10157000FFF7AFFD6006040E022003F001F9102111
:101580000848FFF7A8FD022003F0FAF810210548EB
:10159000FFF79FFD022003F0F3F8681CC5B2082D89
:1015A000D8DB70BD0010024010B54FF480710248C6
:1015B000FFF78FFD10BD0000000402401CB50121A3
:1015C000022000F0ADFF4FF48070009001208DF8F4
:1015D000040000208DF8060003208DF8050002208D
:1015E0008DF8070069460448FFF7FFFC4FF480714F
:1015F0000148FFF770FD1CBD000402402DE9FF47C4
:1016000004460D4616469946002003900296002790
:101610008046009002A805F0D3F88DF80C000398DE
:10162000C0F30310022800D01FE001A9029800F0C7
:1016300095F88046029908440290DDE901104718A8
:101640000298381A022800DA0FE002A805F0B8F86C
:101650008DF80000009800F00100207002A805F04D
:10166000AFF828704FF0010800BF404604B0BDE855
:10167000F0872DE9FE4F05460E4614461F46DDE96C
:101680000C9B00200290CDF804908046824601A871
:1016900005F096F88DF808000298C0F303100928A9
:1016A00000D02CE06946019800F058F88246019974
:1016B00008440190DDE9001000EB01080198A8EB57
:1016C0000000022800DA1AE001A805F080F828805E
:1016D000002020600DE02068B04202DD4FF0FF3AAC
:1016E0000DE001A805F06CF82268511C216047F854
:1016F000220001984045EED34FF0010A00BF50464A
:10170000BDE8FE8F2DE9F84305460C46012600276B
:101710000020206000BF4FF0FF38781C07460428E7
:1017200001DD00BF17E001216846A8478046B8F1F7
:10173000010F00D00FE09DF8001001F07F0120683C
:1017400001FB06002060F6019DF8000000F080001B
:101750000028E0D100BF3846BDE8F88370B50446E4
:101760000D460348046029460248FFF7CBFF70BDD1
:10177000E40000207D42000830B50246002300BF8F
:101780000846CD1701EB5565ED11A1EBC515ECB27F
:10179000CD1701EB5565E911002901DD44F0800406
:1017A00018465B1C14540029EADC184630BD0000C2
:1017B000401C802801DA401C0AE0B0F5804F01DAB5
:1017C000801C05E00349884201DAC01C00E0001DCE
:1017D00070470000FFFF1F002DE9FC4104460F4643
:1017E00015464FF0FF38002001900026009001219F
:1017F0002046A847012800D01EE001266946284659
:10180000FFF780FF601C0099FFF7B6FF06440098C1
:101810003044B84200DD0FE0009830B1A0190099C3
:10182000A8470099884200D006E020788DF804008F
:101830000198C0F3031800BF4046BDE8FC810000DA
:101840002DE9FE4305460E46144602950020019000
:10185000009000274FF0FF38204600F0A5F807461B
:101860008146FFF7A5FFB04202DD6FF001088FE06F
:1018700000208DF80400019820F0F0001030019055
:101880009DF8041002A805F0D3FA39460298FFF734
:1018900073FF029908440290207A042808D13EA1DF
:1018A00002A805F0B1FA042102A805F0C1FA07E088
:1018B0003BA102A805F0A8FA032102A805F0B8FA96
:1018C00000208DF80000A17E009861F34100009097
:1018D000E07E08B1012100E00021009861F3820060
:1018E00000900098C0F3800058B194F83D10009823
:1018F00061F3C400009094F83C10009861F3451027
:101900000090206C08B9A06C20B1009820F08000F5
:1019100080300090E06C08B9606D20B1009820F034
:101920004000403000909DF8001002A805F080FAB9
:10193000218B02A805F082FA02A8D4E90423E16809
:1019400005F094FAE07E58B102A8D4E90A23616A4E
:1019500005F08CFA02A8D4E90D23216B05F086FA74
:101960000098C0F3C01028B102A8D4E91123216C5B
:1019700005F07CFA0098C0F3801028B102A8D4E9E1
:101980001423E16C05F072FA0298A0EB050800BF81
:101990004046BDE8FE8300004D5154540000000055
:1019A0004D5149736470000070B504460025207ADB
:1019B000032801D10C2503E0207A042800D10A2550
:1019C000D4E90412E06800F07BFC801C0544E07E52
:1019D00068B1D4E90A12606A00F072FC861CD4E98E
:1019E0000D12206B00F06CFC3044801C0544206C10
:1019F00008B9A06C30B1D4E91112206C00F060FC81
:101A0000801C0544E06C08B9606D30B1D4E9141253
:101A1000E06C00F055FC801C0544284670BD70B594
:101A200004460D460E222946204600F0E2F870BD1D
:101A300070B504460D460C222946204600F0D9F820
:101A400070BD2DE9F04F87B005460F4690461C4605
:101A5000DDE915B6DDE9109A0695002005900490A1
:101A600003900096204612A90EC900F042F8049097
:101A70000290FFF79DFEB84203DD6FF00100039076
:101A800033E0059820F0F00030300590059868F3B9
:101A9000C3000590059864F342000590059869F32A
:101AA000000005909DF8141006A805F0C1F90499EE
:101AB0000698FFF761FE06990844069006A812A949
:101AC0000EC905F0D3F9002C03DD514606A805F038
:101AD000B5F9324659460698FEF7A9FB06983044F8
:101AE00006900698401B039000BF039807B0BDE81E
:101AF000F08F7FB50546089E002401A807C800F0B6
:101B0000DFFB801C30440444002D00DDA41C204673
:101B100004B070BD2DE9FF5F05460E461746984696
:101B2000DDE90E9A039500200290019000900024B8
:101B30005146484600F046F883460190FFF738FECC
:101B4000B04202DDA01E009038E000208DF80800B1
:101B5000029820F0F00080300290029867F3C300F2
:101B60000290029820F00600801C02909DF8081058
:101B700003A805F05DF901990398FFF7FDFD0399AE
:101B800008440390414603A805F058F900240FE0EB
:101B900004EB44000AEB800C03A89CE80E0005F05F
:101BA00065F9109810F8241003A805F041F9641C99
:101BB0004C45EDDB0398401B009000BF009804B03B
:101BC000BDE8F09F2DE9F04105460E4602270024AE
:101BD0000AE004EB440006EB800393E8070000F002
:101BE0006FFBC01C0744641CAC42F2DB3846BDE806
:101BF000F0812DE9FC4104460D4616460020019077
:101C0000471E0094022D01DA871E15E000208DF892
:101C10000400019866F3071001909DF804106846CF
:101C200005F006F900210098FFF7A6FD0099084489
:101C300000900098071B00BF3846BDE8FC810000FB
:101C40002DE9F041002559E04FF496732DA230A103
:101C500031A000F0C9F846B2002E2AD130A001F020
:101C60007FFA0122002135A000F022FA08B90120F4
:101C700000E0002007460222002134A000F018FAFC
:101C800008B9012000E00020804657B1B8F1000FEC
:101C900007D032A001F064FA002500203449086022
:101CA0002DE04246394633A001F05AFA00F0C0F95F
:101CB00000BF681CC0B20546052809DB35A001F04D
:101CC0004FFA3CA001F04CFA01202949086016E0C7
:101CD0000120A8404FF47A6100FB01F44EF6602029
:101CE000844200D900E0204604462A46214638A016
:101CF00001F036FA204602F037FD00BFA4E700BF2E
:101D0000BDE8F081487573744062696D3431350007
:101D100061646D696E0000007465737400000000FA
:101D20004D515454C1ACBDD3B3C9B9A6A3ACB6A9E7
:101D3000D4C4D6F7CCE22E2E2E0A0000646F776E44
:101D40002F706F696E742F696D740000646F776E09
:101D50002F706F696E742F6672710000CBF9D3D04B
:101D6000D6F7CCE2B6A9D4C4B3C9B9A60A0000001C
:101D7000E0000020D6F7CCE2B6A9D4C4CAA7B0DCF4
:101D8000A3BA537562333A256420537562343A25F9
:101D9000640A0000B3ACB9FDD7EEB4F3D6D8C1AC39
:101DA000B4CECAFDA3A1C9E8D6C3CFC2CFDFB1EA82
:101DB000D6BE0A00BDF8C8EBD1ADBBB7B5C8B4FDFF
:101DC000D6D8C1ACC4A3CABD2E2E2E0A0000000076
:101DD000256C756D73BAF3B5DA2564B4CED6D8CA5E
:101DE000D42E2E2E0A0000002DE9F04F99B00646A1
:101DF0000F4690469B461EB117B1B8F1000F06D1B1
:101E00004BA001F0ADF9E02019B0BDE8F08F5822E9
:101E10004D4903A8FEF70BFA0696ADF824B0012051
:101E20008DF826001397CDF8588003208DF8140004
:101E300003AA4FF400714548FFF702FD84B224B9AC
:101E400043A001F08DF9E120DEE721463F4804F090
:101E500015FEA04204D046A001F082F9E220D3E7AB
:101E60004FF400713948FEF709FA4FF4FA6002F0B6
:101E70007BFC40F6B839FF20019042A001F070F9D8
:101E80004EE0414A4FF400713048FFF7A5FC05468B
:101E90004FF0000A07E02D4810F80A103BA001F0AF
:101EA0005FF90AF1010ABAF1400FF4DB35A001F045
:101EB00057F9022D21D12B02244A01A902A8FFF7CC
:101EC0009DFB012804D032A001F04AF9E3209BE7F2
:101ED0009DF8040048B19DF8041034A001F040F9C9
:101EE0009DF80400F030C0B28EE738A001F038F958
:101EF00000203A4981F8020286E7681C20B938A020
:101F000001F02EF9E4207FE72DB9322002F02CFCFD
:101F1000A9F1320903E0294636A001F021F900BFFA
:101F2000B9F1000FADDC3CA001F01AF9E5206BE738
:101F3000B4EDCEF33A20B2CECAFDB4E6D4DABFD5C2
:101F4000D6B8D5EB0A000000AC6E0008AE09002040
:101F5000B4EDCEF33A20434F4E4E454354B1A8CE94
:101F6000C4D0F2C1D0BBAFCAA7B0DC0A00000000E9
:101F7000B4EDCEF33A20CDF8C2E7B7A2CBCDCAA7D5
:101F8000B0DC0A000D0A0000156A00082564200074
:101F9000B4EDCEF33A20434F4E4E41434BB7B4D04D
:101FA000F2C1D0BBAFCAA7B0DC0A0000C1ACBDD340
:101FB000B1BBBEDCBEF8A3ACD0ADD2E9B4EDCEF37C
:101FC000C2EB3A203078253032580A004D51545433
:101FD000C1ACBDD3B3C9B9A6210A0000DC050020FD
:101FE000B4EDCEF33A20B1A8CEC4BDE2CEF6D2EC29
:101FF000B3A30A00BEAFB8E63A20CAD5B5BDCEB489
:10200000B4A6C0EDB1A8CEC4C0E0D0CD20307825B4
:102010003032580A00000000B4EDCEF33A20B5C8C3
:10202000B4FD434F4E4E41434BB3ACCAB10A00001E
:1020300010B54FF400710748FFF7F1FC84B2214658
:10204000044804F01BFD4FF400710248FEF716F936
:1020500010BD0000AE090020F0B58BB005460C465F
:102060000020089009900A9008952046FEF71DF977
:102070000746CDE9054008A807C802AB07C3002002
:102080000090034602464FF4007101900748FFF7A5
:10209000D8FC86B23146054804F0F0FC4FF40071DC
:1020A0000248FEF7EBF800200BB0F0BDAE090020AF
:1020B0002DE9F74388B0074614460998002802DB4B
:1020C0000998022806DD49A001F04AF801200BB06A
:1020D000BDE8F0830020059006900790059709A8B9
:1020E00005A90122A3B2CDE90021029000224FF4FC
:1020F00000714148FFF70EFD85B225B93FA001F000
:102100002FF80120E3E729463B4804F0B7FCA8423A
:1021100004D03DA001F024F80120D8E74FF400716D
:102120003548FEF7ABF84FF47A7002F01DFB4FF420
:102130007A7652E0374A4FF400712F48FFF74CFB94
:102140008046B8F1090F38D14FF400702A4902AB2C
:1021500003AACDE90010012104A8FFF78AFA00F0D4
:10216000FF090398012806D001212BA0039A00F053
:10217000F7FF0120ABE7B9F1010F04D049462FA0CA
:1021800000F0EEFF2BE0BDF81000A04207D0BDF834
:102190001020214630A000F0E3FF012097E70298CD
:1021A000802805D1394634A000F0DAFF01208EE7FF
:1021B0000020364981F8020289E7B8F1030F07D100
:1021C00033A000F0CDFF643E642002F0CDFA03E0BE
:1021D000643E642002F0C8FA00BF002EAADC00BFF3
:1021E00032A000F0BDFF012071E70000B2CECAFDB1
:1021F000B4EDCEF300000000AE090020D0F2C1D053
:10220000BBAFCAA7B0DC0000B7A2CBCDCAA7B0DC79
:1022100000000000156A0008B6A9D4C4CAFDC1BFF9
:10222000B2BBC6A5C5E421C6DACDFB3A2025642C95
:10223000CAB5BCCA3A2025640A000000B7B4D0F27F
:10224000C1D0BBAFCAA7B0DC21B4EDCEF3C2EB3A2C
:102250002025640A00000000CFFBCFA24944B2BB96
:10226000C6A5C5E421C6DACDFB3A2025642CCAB543
:10227000BCCA3A2025640A00B6A9D4C4D6F7CCE279
:10228000B1BBBEDCBEF83A2025730A00DC05002095
:10229000CAD5B5BDCEB4D4A4C6DAB5C45055424CE7
:1022A000495348B1A8CEC40A00000000B5C8B4FD27
:1022B00053554241434BB3ACCAB1210A0000000060
:1022C00037B50024009820B10098FDF7EEFF0446D2
:1022D00000E0019C20463EBD00BFFEE770470000C5
:1022E00070B5002100230F22C4781CB3174C24685A
:1022F00004F4E064C4F5E064C4F30721C1F104040C
:10230000E3B20A4144789C40E1B28478144021430E
:102310000C07210E0E4C05786155047804F01F055A
:102320000124AC4005786D11AD0005F1E025C5F83C
:10233000004109E0047804F01F050124AC40054D7C
:102340000678761145F8264070BD00000CED00E0DF
:1023500000E400E080E100E0F0B503461446072900
:1023600001DA0720F0BD1878012801D00420F9E730
:102370005878032801D00520F4E74FF6FF720020BB
:1023800011E01E5C724000260AE002F0010727B14E
:102390004AF2010787EA620700E057103A46761CC6
:1023A000082EF2DB401C8E1E8642EADC881E1E5C74
:1023B000481E185C46EA0025AA4201D00320D1E756
:1023C0009878022801D1072901D00720CAE7187997
:1023D000DE7840EA062020700020C3E72DE9F04FA8
:1023E00085B00446884691461D462078FA2803D0D9
:1023F000042005B0BDE8F08F6079222801D00520C7
:10240000F7E74FF6FF76002010E0215C4E400021F8
:1024100009E006F0010222B14AF2010282EA6606F0
:1024200000E07610491C0829F3DB401CA8F10201EA
:102430008142EADC0846215C401C205C41EA002025
:1024400004900498864201D00320D2E7E079A17974
:1024500040EA0120039004F10C0002900020287053
:10246000029800F10C0703980C381FFA80FA47E035
:10247000D7F800B078680190B8680090584604F02A
:1024800007FA8346019804F003FA0190009804F0DB
:10249000FFF9009000EE10BAB8EEC00ADFED1F0A97
:1024A00020EE200A287800EB400009EB800080ED48
:1024B000000A9DED010AB8EEC00ADFED180A20EE11
:1024C000200A287800EB400009EB800080ED010A2B
:1024D0009DED000AB8EEC00ADFED100A20EE200ADA
:1024E000287800EB400009EB800080ED020A0C37F1
:1024F000AAF10C001FFA80FA2878401C287000BF4F
:10250000BAF10C0F02DB28780828B1DB2878002804
:1025100001DD00206DE707206BE700006F12833AB2
:1025200029B1064A12680243044B1A6004E0034AC8
:1025300012688243014B1A60704700003038024035
:1025400029B1064A12680243044B1A6004E0034AA8
:1025500012688243014B1A60704700004038024005
:1025600029B1064A12680243044B1A6004E0034A88
:1025700012688243014B1A607047000044380240E1
:10258000F0B5002100220024022500260223324F4C
:102590003F6807F00C0121B1042905D0082937D183
:1025A00005E02E4F076036E02D4F076033E02A4FDD
:1025B0003F1F3F68C7F38056274F3F1F3F6807F014
:1025C0003F036EB1264FB7FBF3F7DFF88CC0ACF1D9
:1025D000040CDCF800C0CCF3881C07FB0CF40CE006
:1025E0001E4FB7FBF3F7DFF870C0ACF1040CDCF85A
:1025F00000C0CCF3881C07FB0CF4174F3F1F3F684B
:10260000C7F301477F1C7D00B4FBF5F7076002E0CC
:10261000124F076000BF00BF0F4F3F6807F0F00187
:102620000909104F7A5C0768D74047600A4F3F6836
:1026300007F4E051890A0B4F7A5C4768D7408760FE
:10264000054F3F6807F46041490B064F7A5C4768C5
:10265000D740C760F0BD0000083802400024F400F5
:1026600000127A00C80000207047000070B50546CF
:102670000E464FF480611548FEF72DFD022002F052
:102680007FF800240CE0295D114800F04AFD00BFEE
:1026900080210F4800F079FC0028F9D0601C84B23A
:1026A000B442F0DB00BF4021094800F06EFC002876
:1026B000F9D0C82002F064F84FF480610348FEF7B7
:1026C00008FD04A000F04CFD70BD0000000C0240AD
:1026D000004800400A0000000CB500200190009066
:1026E0003448006840F480303249086000BF314807
:1026F000006800F4003000900198401C01900098A0
:1027000018B90198B0F5A04FF1D12A48006800F43B
:10271000003010B10120009001E0002000900098EE
:10272000012846D123484030006840F080502149BC
:10273000403108602048006840F440401E4908606D
:102740001C48083000681B490831086008460068CA
:1027500040F4004008600846006840F4A05008605B
:102760001648091F0860081F006840F08070091FA4
:10277000086000BF0F48006800F000700028F9D022
:1027800040F205700E4908600A480830006820F0E1
:1027900003000849083108600846006840F002005C
:1027A000086000BF03480830006800F00C000828EB
:1027B000F8D10CBD003802400070004019544007A9
:1027C000003C024010B51548006840F47000134901
:1027D00008601348006840F00100114908600020BB
:1027E0000F49083108600E4800680E4908400C493E
:1027F00008600D48091D0860081F006820F480204B
:10280000091F0860002006490C310860FFF764FFCB
:102810004FF0006001498039086010BD88ED00E08C
:1028200000380240FFFFF6FE1030002410B50121F1
:10283000880700F0D8F948B10121880700F0C1F9F4
:102840000348006810B901200249086010BD00006B
:10285000E0000020040000201FB501210846FFF71A
:102860006FFE46F6FF00ADF804000020ADF806004C
:102870004EF65F2002900020ADF80C0001A94FF049
:10288000804000F0DDF90121880700F097F901216F
:10289000880700F099F901221146900700F0B4F979
:1028A0001C208DF800000F208DF8010001208DF80C
:1028B00002008DF803006846FFF712FD1FBD0000FF
:1028C00010B50121084800F08EF958B101210648E1
:1028D00000F077F905480088002803DD012003494E
:1028E00081F8020210BD000000040040DC05002059
:1028F0001FB501210220FFF723FE0920029041F6B7
:102900001F40ADF804000020ADF80600ADF80C0043
:1029100001A9114800F094F904210F4800F086F94C
:1029200050210D4800F079F9012211460A4800F0C3
:102930006BF91D208DF800000F208DF801008DF837
:10294000020001208DF803006846FFF7C9FC012151
:10295000014800F039F91FBD000400400EB5012107
:102960000420FFF7EDFD1A20ADF800000020ADF8BF
:1029700002004FF6FF7001900020ADF80800694694
:10298000034800F05DF90121014800F01DF90EBD7A
:102990000008004010B50121504800F024F900283B
:1029A0007ED001214D4800F00CF94D480068401CD4
:1029B0004B4908604B48FEF7C2FA4A48FEF793FAC3
:1029C000484800784849097888421DD145484078F0
:1029D00045494978884217D14248807842498978E8
:1029E000884211D13F48C0783F49C97888420BD10D
:1029F0003C4800793C490979884205D101203B498E
:102A000008603BA000F0ACFB364800783C490978F0
:102A100088421DD13348407839494978884217D1D6
:102A20003048807836498978884211D12D48C0785D
:102A30003349C97888420BD12A480079304909794D
:102A4000884205D101202F4908602FA000F088FBA3
:102A50002448007830490978884217D121484078C5
:102A60002D494978884211D11E4880782A498978B1
:102A700088420BD11B48C0782749C978884205D1C4
:102A800001202649086026A000F06AFB154800785E
:102A90002849097888421FD112484078254900E02A
:102AA0001AE04978884217D10E4880782149897800
:102AB000884211D10B48C0781E49C97888420BD191
:102AC000084800791B490979884205D101201A4933
:102AD00008601AA000F044FB10BD0000000C00408C
:102AE00000000020880000208E0000200800002048
:102AF0006765742074696D65312121210D0A00001C
:102B0000940000200C0000206765742074696D65D6
:102B1000322121210D0A00009A000020100000201F
:102B2000676574206E6577206461792121210D0A23
:102B300000000000A0000020140000206765742041
:102B40006E6578742076616C69646174696F6E215A
:102B500021210D0A000000001FB501210820FFF708
:102B6000EFFC46F6FF00ADF804000020ADF80600CB
:102B700047F22F50029001A90F4800F061F801219F
:102B80000D4800F01BF8012211460B4800F03CF8FC
:102B90000121094800F018F832208DF800000120CA
:102BA0008DF8010000208DF8020001208DF803004F
:102BB0006846FFF795FB1FBD000C0040CA43028228
:102BC0007047CA430282704721B1028842F0010275
:102BD000028004E002884FF6FE731A4002807047BC
:102BE0000146486A704730B50246002000230024A1
:102BF000158A05EA0103958905EA010413B10CB1B0
:102C0000012000E0002030BD1AB183890B4383818D
:102C100002E083898B43838170470A460021018942
:102C20004FF68F73194011430181704702894FF6A7
:102C3000F8731A40028102890A430281704700003A
:102C400000220288184B98420ED0184B98420BD0A5
:102C5000B0F1804F08D0164B984205D0154B9842E2
:102C600002D0154B984204D14FF68F731A404B880F
:102C70001A43124B984207D0114B984204D04FF69A
:102C8000FF431A400B891A4302804B68C3620B88CA
:102C90000385054B984202D0044B984201D18B7AB0
:102CA0000386012383827047000001400004014035
:102CB0000004004000080040000C004000100040EC
:102CC0000014004010B540F225511D4800F06AF98B
:102CD00010B31B4800F020FAC4B21A48008800F470
:102CE0000040C8B91748008800F4804060B10A2C41
:102CF00003D000201349088020E01248008840F4E7
:102D000000401049088019E00D2C06D10D480088BC
:102D100040F480400B49088010E00A480088C0F366
:102D20000D0009490C5407480088401C05490880DB
:102D300008460088C72801DD0020088010BD00007B
:102D400000100140D8000020E007002010B540F23C
:102D50002551144800F026F918B313480088B0F53F
:102D6000007F0DDA0F4800F0D7F9C1B20E48028893
:102D7000801C8154801E0088401C0B49088008E09C
:102D80000020094908804FF400710748801CFDF7B6
:102D900075FA00200549086040F22551014800F00D
:102DA000D9F810BD00440040DC0500202404004098
:102DB00038B540F225511F4800F0F4F808B31D481B
:102DC00000F0AAF9C5B21C49B1F80011481CC1179E
:102DD00000EB11610912A0EB01218CB21648B0F88A
:102DE0000201A04207D01448B0F8000112490D5466
:102DF0000846A0F8004140F225510E4800F0AAF81C
:102E000000BF40F224410B4800F0CCF880B10948E3
:102E1000008800900748001D0088009040F224417F
:102E2000044800F097F80120034981F8040100BF2D
:102E300038BD000000480040A80800202DE9F041FE
:102E400006460C460CB1002020802B4890F8040167
:102E500008B9BDE8F08100252748B0F800012649EF
:102E6000B1F80211884208DB2348B0F8000122497A
:102E7000B1F80211401A85B209E01F48B0F802010A
:102E8000C0F580701C49B1F80011084485B204B146
:102E900025801948B0F80221B0F800112B4617A080
:102EA00000F05EF92EB3002D23DD002720A000F0F6
:102EB00057F917E01048B0F802010F49085CF055C7
:102EC000B1F80211481CC11700EB11610912A0EB07
:102ED0000121094AA2F80211F15D1CA000F040F99D
:102EE000781C87B2AF42E5DB0020034981F804017A
:102EF00000BF00BFADE70000A80800205B52585D8E
:102F000020427566666572205374617475733A2049
:102F1000686561643D25642C207461696C3D25649D
:102F20002C2076616C69645F6C656E3D25640A00D7
:102F30005B52585D20436F7079696E6720446174FD
:102F4000612028486578293A200000002530325851
:102F50002000000010B50022002340F66A14A142B0
:102F600000D100BF0A1201249440A3B2DC430480C4
:102F700010BD21B1828942F40052828104E082892D
:102F80004DF6FF731A408281704702460020B1F56A
:102F9000007F00D100BF13880B400BB1012000E07F
:102FA0000020704770B50246002400230025002051
:102FB00040F66A16B14200D100BFC1F3421501F0DC
:102FC0001F03012606FA03F3012D02D1968933402F
:102FD00006E0022D02D1168A334001E0968A334082
:102FE0000C12012606FA04F41688344013B10CB111
:102FF000012000E0002070BDF0B50346002400264B
:103000000025002040F66A17B94200D100BF1846DB
:10301000C1F3421401F01F06012707FA06F5012C3F
:1030200001D10C3004E0022C01D1103000E014304A
:103030001AB107682F43076002E00768AF430760D3
:10304000F0BD00002DE9FF4705460E460024A146CD
:1030500000BFA046B08900B100BF2C8A24F44054C0
:10306000F08804432C82AC8941F20C608443B08820
:1030700031890843718908430443AC81AC8A24F444
:103080004074B0890443AC826846FFF779FA20485F
:10309000854202D01F48854202D1DDF80C9001E044
:1030A000DDF80890A88900F4004040B109EBC900A0
:1030B00000EB091031684900B0FBF1F707E009EBBC
:1030C000C90000EB091031688900B0FBF1F76420FA
:1030D000B7FBF0F004012009642101FB1078A889F6
:1030E00000F4004040B1322000EBC800B0FBF1F02A
:1030F00000F00700044308E0322000EB08106421D0
:10310000B0FBF1F000F00F0004432C81BDE8FF8715
:10311000001001400014014001468888C0F30800F7
:103120007047C1F308028280704700BFFEE70000CD
:1031300070B504460D4600260CE021780748FFF7DD
:10314000F0FF00BF80210548FFF71FFF0028F9D0DE
:10315000641C761CAE42F0DB70BD000000440040F1
:103160000FB4054B10B503A9044A029800F0DAFC2D
:1031700010BC5DF814FB0000ED490008FC000020C5
:103180000FB41CB50246002007AC00290BD0491E25
:10319000CDE90021054B6A462146069800F0C2FCA5
:1031A000009A002111701CBC5DF814FB534200080A
:1031B0004100080218BF04200A0E18BF40F00100A9
:1031C0004FF07F4232EA010108BF40F002000128BF
:1031D00008BF052070470000004870470801002024
:1031E00030B528B1144C031F002021680A4605E0C1
:1031F000084630BD9A4203D810465268002AF9D1D9
:10320000002800D041680BD00468A3EB0005A5425C
:1032100004D11B681C440346046002E0436000E0E4
:1032200023603AB11C68D51AA54203D115682C4415
:103230001C6052685A6030BD0001002010B510EECD
:10324000100A2DED068BB7EE001A10EE901AB0EEB4
:10325000418A0022A0F5000CDFEDFE9A4FF00073CA
:10326000BCF1FE4F4FF07F4403EB410C80F0B48182
:10327000BCF1804FC0F02082F74901449FEDF73A3E
:10328000B1F5005F40F2D48200F58021CB0C03F051
:103290000F0101EE901AC3F307137F3BA0EBC3505D
:1032A000B8EEE12A00EE100A1A44DFEDED2AF0EE46
:1032B000411A42EE221AF0EE613A70EE232A30EE05
:1032C000632A12EE900A00F500606FF30B0001EE26
:1032D000900A73EEE13A33EE804AC1EE223A22EED2
:1032E000230A10EE100A00F500606FF30B0000EEE9
:1032F000100A00EE612A00EE442A62EE232A70EEE4
:10330000221A21EEA12ADFEDD73A02EE233A23EE6C
:10331000023A20EE012A22EE811A03EE211A32EE41
:10332000010A10EE100A00F500606FF30B0000EECA
:10333000100A72EE401A31EE812A9FEDCB1A60EE30
:10334000011A9FEDCA1A20EE011A9FEDC90A02EE7A
:10335000001A31EE810A10EE100A00F500606FF3DA
:103360000B0000EE100AC34871EEC01A31EE812A3C
:10337000784400EBC10090ED003AD0ED011A100145
:1033800001EE100AF8EEC12A32EE211A31EE001ACF
:1033900031EE031A31EE221A11EE100A00F5006028
:1033A0006FF30B0009EE100A39EE621A31EE431A80
:1033B00031EE400A30EE610A32EE40AA10EE900A79
:1033C000002100F500606FF30B0008EE900A08463C
:1033D00070EEE8AAFDF728FD29EE280A00F00C019E
:1033E000F0EEC00A10EE900AB0F18B4F0DDD10EE3A
:1033F000900AB4EB400F08D310EE100A4FF08B4246
:1034000062F31E0008EE900A13E069EE2A0A38EE15
:10341000AA1A4AEE010A30EE201A11EE100A00F53F
:1034200000606FF30B0008EE900A30EE680A70EE51
:10343000209A0C20FDF7F8FC38EEA90AB5EEC00A78
:10344000F1EE10FA34BFFEEE000AF6EE000A30EE9E
:10345000800ABDEEC00A10EE100A011100EE101A2B
:10346000F8EEC00A00EE100AB8EEC00A38EEC00A44
:1034700030EE290ADFED801A9FED801A00EE211A46
:10348000DFED7F1A7F4900F00F0040EE011A21EEB8
:10349000800A794401EB800191ED001A7A49794460
:1034A00001EB8001D1ED001A784901EE801A7944D0
:1034B00001EB8000764990ED000A31EE001AB0EE83
:1034C000E00A10EE100A884215DA10EE100AB4EB8A
:1034D000400F10D39FED6F0A30EE800ADFED6E0AC9
:1034E00020EE200A68EE010ABDEC068BBCEEC00A95
:1034F00020EE200A10BD10EE100A6849884243DA17
:1035000010EE100AB4EB400F3ED3BDEEE00A68EEB9
:10351000010A10EE100A00EBD0725110C90501F13A
:103520007E5100EE101AA0EB6200C00560EE200A8A
:1035300000F17E5000EE100A60EE808A18EE900ACC
:10354000B4EB400F0FD1022000F01CFA00F0FAF9A2
:1035500010EE101A18EE100ABDEC068B61F31E0077
:1035600000EE100A10BD18EE900A400011D018EEBF
:10357000900AFFF71DFE042808BF00F0EBF9B0EE3B
:10358000680ABDEC068B10BDF5EEC00AF1EE10FA2C
:103590000FD2022000F0F6F900F0DCF910EE101A5C
:1035A00018EE100ABDEC068B61F31E0000EE100A47
:1035B00010BD022000F0E6F900F0C4F910EE101A78
:1035C000B0EE480A10EE100ABDEC068B61F31E0047
:1035D00000EE100A10BD00BFBCF1804F6CD300BFDD
:1035E00000F1FF43B3F1FE4F24D200BFB0EEC00A9A
:1035F00010EE100AC1F3C7537F2B0DDB972BBFF6DC
:103600003BAEC3F196034FF0010C0CFA03F3A3F1A8
:10361000010C1CEA010F08D0012000F0B3F9BDEC49
:10362000068BBDE8104000F085B90B4218BFBFEE15
:10363000008A21E643001CBF4FF08073B3EB400FBC
:1036400034D96FF01A02DFED161A20EE210A10EEBF
:10365000100A27E000000000001080C0ABAAAA3EBC
:103660000000803D7EE24C3E00B03842D49AB8BBA8
:103670003BAA3842B03B0000FC596337C9FF753A9A
:103680001872313D4E3B0000823B0000F23A0000D0
:103690000000FC420000FE420000004B00004043DE
:1036A0000000004D10F0004FA0D1E5E5A0F50003AB
:1036B000B3F1FE4F21D2DFE503EB4103B3F1007F0D
:1036C00011D3F5EEC00AF1EE10FA05D1430018BF90
:1036D000B4EB400F76D883E701F0004141F0FC5194
:1036E00000EE901A7CE7B3F1807F06D210EE903A9C
:1036F000A3F5000300EE903A72E720F000426FF06D
:10370000FF4C604C02EB0C03A34210D321F00043AA
:103710009C44A4450BD3B0F17E5F18BF5FEA410C17
:1037200050D0B2F1FF4F98BFB3F1FF4F05D9BDECB8
:10373000068BBDE8104000F0F9B8B0F1FF4F0FD094
:10374000C1F3C7527F2A09DB972A11DAC2F1960228
:10375000012303FA02F2531E0B4205D0002208E0B7
:1037600011F0004F55D128E00A4218BF012200D1C4
:10377000022210F5000F13D028B3B0F1004F26D06D
:1037800010F1814F4FD04FF0FE42B2EB400F94BF8B
:1037900001200020012202EBE171884239D10CE0C6
:1037A00011F0004F02D0012A38D032E0012A02BFC6
:1037B0009FED350ABDEC068B10BD9FED340ABDECC4
:1037C000068B10BD2FE011F0004F0CD121E0B1F1BC
:1037D000FF4F1ED011F5000F05D011F0004F15D08E
:1037E0000AB1012A08D0022000F0CCF8BDEC068B0B
:1037F000BDE8104000F090B8022000F0C3F800F0DF
:103800008BF8BDEC068BB1EE400A10BD0AB1012A5F
:1038100004D0B0EE690ABDEC068B10BDBDEC068B82
:103820009FED1B0A10BDBDEC068BB7EE000A10BD64
:1038300030EE410AB5EE001A9FED172A00EE413A2C
:10384000B6EE001A60EE001A00EE431A61EEC11ADD
:103850009FED101A20EE011A20EE020A9FED0F2AAA
:1038600001EE820A71EE001A11EE900A00F5006076
:103870006FF30B0009EE100A31EE491A31EE00AA7F
:103880009CE50000FFFF3F00000080FF0000807FFC
:103890000000008000B0B841D49A38BB3BAAB841C0
:1038A00000B583B09FED060B0A4601468DED000B77
:1038B0006846FDF792F99DED000B03B000BD0000D6
:1038C00000000000000000002DE9F04782460F4C88
:1038D00010480D4E0E4F001B4FF0000820F007055A
:1038E0004FF0010900221146504601F0DDF8002892
:1038F00002D1306810B10020BDE8F0873C60C4E917
:103900000058C6F80090EDE704010020B40B002039
:1039100000010020B00D0020DFED030AB7EE001A11
:1039200081EE200A704700000000000030EE200AFF
:1039300070470000DFED020A80EEA00A7047000029
:10394000000000009FED020A20EE000A7047000010
:10395000000000709FED020A20EE000A7047000090
:103960000000001002E008C8121F08C1002AFAD1A6
:1039700070477047002001E001C1121F002AFBD1EF
:1039800070470000014908607047000008010020EE
:103990002DE9FF5F82B00021DDE90430020DDDF882
:1039A00040B0034318D044F61050A2F2FF32424315
:1039B0001514119801281FD0A5EB0B00401C5FEADD
:1039C000000A4FF000064E4FDFF83891B0465046DF
:1039D00015D5CAF1000413E0119801244AA3012867
:1039E00001D16FEA0B010298119AC0E90031C0E9D8
:1039F000024206B0BDE8F09FCBF10000DFE70446CD
:103A00000021404A491842EB0450CDE9001012E071
:103A1000E00707D032463B4640464946FCF712FFD6
:103A20008046894632463B4610461946FCF70AFF57
:103A300006460F466410002CEAD1DDE90401DDE9F9
:103A40000023BAF1000F06DAFCF7FCFE42464B46B3
:103A5000FCF7F8FE05E0FDF750F942464B46FDF74E
:103A60004CF904460E460022284BFCF7BFFF03D852
:103A70004FF0FF30014607E00022254B204631463B
:103A8000FCF739FEFCF76FFF102409E0002C0ADB7D
:103A90000A220023FCF794FB039B30321A55641E64
:103AA00050EA0102F2D1641C039AC4F111031444D8
:103AB000119A012A03D0012208430DD10AE00843DC
:103AC00004D000204FF0110B119072E7A3EB0B050F
:103AD0006D1E0DE05B4504DD4FF0000205F10105B0
:103AE00004E003DA4FF00002A5F10105002AECD052
:103AF00002981199C0E90231C0E9004579E7000058
:103B0000000014400000F03F300000000000F043CF
:103B10000000E03F30380A2801D201207047002021
:103B2000704700002DE9FF4F95B09B468946064639
:103B300000250FE2252877D100242746F84A0121E5
:103B4000059400E0044316F8013F203B01FA03F01E
:103B50001042F7D130782A2811D06FF02F03307837
:103B6000A0F13002092A16D8059A44F0020402EBAB
:103B7000820203EB42021044761C0590EFE759F8ED
:103B8000042B0592002A03DA504244F400540590B5
:103B900044F00204761C30782E2816D116F8010F56
:103BA00044F004042A280DD06FF02F023078A0F1E1
:103BB0003003092B09D807EB870302EB4303C7182F
:103BC000761CF3E759F8047B761C30786C280FD00C
:103BD00006DC4C2817D068280DD06A2814D104E0E0
:103BE000742810D07A280FD10DE044F400140AE0B4
:103BF00044F4801401E044F440147278824202D10B
:103C000004F58014761C761C307866280BD013DC03
:103C1000582877D009DC002875D04528F6D04628EA
:103C2000F4D047281AD19DE118E0632835D06428E4
:103C300079D0652812D195E1702873D008DC672807
:103C4000F1D069286FD06E280DD06F2806D1B5E06D
:103C500073282CD0752875D0782874D05A461799B7
:103C600090476D1C75E1C4F30250022809D0032867
:103C70000DD0D9F8001004280DD00D6009F1040909
:103C800067E1D9F80010EA17C1E90052F6E7D9F860
:103C900000100D80F2E70D70F0E719F8041B8DF8A5
:103CA000001000208DF80100EA46012003E059F8D9
:103CB00004AB4FF0FF3061074FF0000102D40DE07C
:103CC00008F101018846B9420FDA8045F8DB1AF89D
:103CD00008100029F4D108E008F10101884681426A
:103CE000FADB1AF808100029F6D105985B46A0EB1C
:103CF000080721463846179A00F094FA284400EB4A
:103D0000080507E04DE029E10DE01AF8010B5A46DD
:103D100017999047B8F10108F7D25B46214638461B
:103D2000179A13E142E00A220092C4F302524FF0C4
:103D3000000A022A08D059F804CB032A4FEAEC7192
:103D40000AD00DE029E02AE009F1070121F007027D
:103D5000F2E802C1914609E00FFA8CFC4FEAEC71DF
:103D6000042A03D14FFA8CFC4FEAEC71002907DAE0
:103D70000A460021DCF1000C61EB02012D2202E079
:103D8000220504D52B228DF80420012203E0E2074E
:103D900001D02022F7E7904659E00A2102E01022E4
:103DA0000DE010214FF0000A00910BE010224FF0BF
:103DB000000A44F004040827009203E008224FF0B0
:103DC000000A0092C4F30252022A05D059F804CB2B
:103DD0000021032A08D009E009F1070121F00702B8
:103DE000F2E802C1914605E01FFA8CFC042A01D1D9
:103DF0000CF0FF0C4FF00008220728D5702806D0E1
:103E0000009B83F0100353EA0A0305D00EE0402222
:103E10008DF80420012208E05CEA010206D030227D
:103E20008DF804208DF8050002229046009B83F057
:103E3000080353EA0A030AD15CEA010201D16207CE
:103E400005D530228DF804204FF001087F1E582838
:103E500004D034A003900EA802900DE036A0F9E73C
:103E600053466046009AFCF7ABF984460398825C9F
:103E70000298401E029002705CEA0100F0D10298A4
:103E800006A9081A00F1200A600702D524F480343C
:103E900000E00127574502DDA7EB0A0000E0002003
:103EA00000EB0A01009005984144401A0590E00398
:103EB00006D45B462146179A059800F0B3F90544ED
:103EC000002706E001A85A46C05D179990476D1C6F
:103ED0007F1C4745F6DBE0030CD55B462146179A6D
:103EE000059800F09FF9054404E030205A461799E0
:103EF00090476D1C0099481E00900029F5DC08E0F1
:103F0000029802995A460078491C029117999047E5
:103F10006D1CBAF10001AAF1010AF1DC65E10000B3
:103F2000092801003031323334353637383961628F
:103F30006364656600000000303132333435363753
:103F400038394142434445460000000000F058F92A
:103F50000544761C307800287FF4ECAD19B0284673
:103F6000BDE8F08F620700D4062709F1070222F0AE
:103F7000070CFCE80223E14603F000485FEA080C66
:103F800002D00FF2702C0DE05FEA045C02D50FF254
:103F9000682C07E05FEAC47C02D00FF2602C01E0DD
:103FA000AFF2700C4FF0FF3823F00043CDF850C053
:103FB00065280CD006DC452809D046281DD04728A6
:103FC0003DD13DE0662818D067287ED138E0002139
:103FD000112F01DB112000E0781CCDE9000106A9BA
:103FE0000EA8FFF7D5FCDDE90F010E9A0391002121
:103FF000009207F1010A04914DE04FF00040009754
:10400000CDE9011006A90EA8FFF7C2FCDDE90F02F9
:1040100003920E9B11990022DDF80CA000930492EC
:1040200011B9791C00EB010AB7EB0A0004D4C0F106
:10403000FF3007F1010A0490AAEB0700019044E069
:10404000012F00DA01270021112F01DD112000E0EE
:104050003846CDE9000106A90EA8FFF799FCDDE975
:104060000F010E9A0391002104910092BA46210794
:104070000CD40399514500DA8A46BAF1010F05DDE7
:10408000009AAAF10101515C302908D0B84202DA45
:1040900010F1040F06DA0121CDE9011015E0AAF1B3
:1040A0000101E9E7002805DC049901440491AAEB29
:1040B000000102E0411C514500DD8A460499401A86
:1040C000401C01904FF000400290200704D401985A
:1040D000504501DBCDF8048000208DF84F00029898
:1040E0000DF14F07B0F1004F25D02B200E90029814
:1040F0004FF0020800280CDA404202902D200E906A
:1041000007E00A210298FCF789FC3031029007F899
:10411000011DB8F10001A8F10108F2DC02980028A5
:10412000EFD1791E0E980870307800F0200040F032
:10413000450007F8020D12A8C01B00F107081498EB
:10414000007800B1012000EB0A01019801EBE07159
:1041500005984144401A401E0590E00306D45B4692
:104160002146179A059800F05DF8054414980078E8
:1041700018B15A46179990476D1CE00324D55B4649
:104180002146179A059800F04DF805441CE0049864
:10419000002807DBDDE90301884203DD0098405C6D
:1041A000179901E0179930205A469047049805F175
:1041B0000105401C04900198401E019004D12E205E
:1041C0005A46179990476D1CBAF10001AAF1010AED
:1041D000DDDC05E017F8010B5A46179990476D1C76
:1041E000B8F10001A8F10108F4DC5B462146179AFA
:1041F0000598ABE62D0000002B0000002000000019
:104200002DE9F041044600251E461746880404D4D3
:1042100005E039462020B0476D1C641EF9D52846BC
:10422000BDE8F0812DE9F041044600251E46904688
:10423000C80301D5302700E02027880404D505E015
:1042400041463846B0476D1C641EF9D52846BDE886
:10425000F0814A68002A06D00A68531C0B6010706F
:104260004868401E48607047014601F00F030A0984
:1042700002EB820003EB4000C0B2704710B502466B
:10428000002309E0064800680078107004480068C0
:10429000401C034C20605B1C8B42F3DB084610BDC6
:1042A000E4000020014609B1086808B90020704701
:1042B00019B1D1E90120904201D30846F7E702E0A5
:1042C0008868401C886041B1D1E90120904204D245
:1042D0008A680868805C2028F2DDD1E901209042DC
:1042E00002D18868401E88600846E0E770B5044641
:1042F000002526E02568A08900F4807020B9A06818
:1043000010B1A068FFF7F2FFA08900F4807038B9FF
:10431000206928B10C4A2069516888470020206133
:10432000A08900F4007038B9206A28B1064A206AD2
:10433000516888470020206203484168204688472A
:104340002C46002CD6D170BDF000002000B50246EE
:10435000104600F014F810B99FED020B00BD92ED6D
:10436000060BFBE7000000000000F87F70B5044674
:104370000D4600222946204600F06CFB70BD014628
:1043800009B900207047087B082801D10120F9E70E
:104390000020F7E770B504462820216888470546C5
:1043A0001DB128212846FBF769FF284670BD70B56E
:1043B00004460D4600231A462946204600F002F81E
:1043C00070BD00002DE9F0478AB004460E46154640
:1043D00098461C2103A8FBF751FF002700202C4919
:1043E0000860486004B106B932E0039404960020E6
:1043F0000590284A07CA07AB07C32648FFF7CAFF3C
:10440000074607B924E003A802F024FA8246FFF722
:1044100049FF81464946384602F034F900B917E0B1
:10442000B8F1000F0BD003A8FFF73CFFDDE9041043
:10443000884203D205990398405C00B108E01DB1A1
:10444000059903980844286038460AB0BDE8F0870B
:1044500017B13846FFF74AFFC4B10194002002901B
:10446000DDE90410884202D20598029004E0049825
:1044700010B10498401E02901DB1DDE9010108440D
:1044800028600348DDE9011206C000BF0020DCE718
:10449000E8000020F00000202DE9FC4706460F460A
:1044A000144620680090A088ADF80400374890FBBF
:1044B000F7F8E0784FF4616110FB01F02179C1EB6E
:1044C000011100EB8100617900EB0109B9FBF8F003
:1044D000401C00FB08F52D48854206D32D1A9DF897
:1044E0000200401CC0B28DF802004FF46160B5FBC1
:1044F000F0F0C0B28DF803004FF46160B5FBF0F14D
:1045000000FB11503C21B0FBF1F0C0B28DF804006B
:104510003C20B5FBF0F100FB11508DF8050023E0C5
:104520009DF801109DF8000000F0F8F89DF80210C9
:10453000081AC0B28DF802009DF80100401CC0B2FC
:104540008DF801009DF801000C280DDD01208DF88B
:1045500001009DF80000401C642190FBF1F201FB7A
:104560001200C0B28DF800009DF801109DF8000007
:1045700000F0D4F89DF802108842D1DB009830603A
:10458000BDF80400B080BDE8FC8700008051010048
:104590007CB504460D4628680090A888ADF8040054
:1045A0009DF80200401CC0B28DF8020000208DF87A
:1045B00003008DF804008DF805009DF801109DF8AA
:1045C000000000F0ABF8064623E001208DF8020061
:1045D0009DF80100401CC0B28DF801009DF801005B
:1045E0000C280FDD01208DF801009DF80000401C13
:1045F000C0B28DF800009DF80000632802DD0020A5
:104600008DF800009DF801109DF8000000F086F87C
:1046100006469DF80200B042D7DC00982060BDF845
:104620000400A0807CBD7CB505460C462068009047
:10463000A088ADF8040017208DF803001E208DF827
:10464000040000208DF80500E078172805DCE078EC
:10465000172839D120791E2836DB9DF80200401C2E
:10466000C0B28DF802009DF801109DF8000000F026
:1046700055F8064623E001208DF802009DF8010060
:10468000401CC0B28DF801009DF801000C280FDD20
:1046900001208DF801009DF80000401CC0B28DF88B
:1046A00000009DF80000632802DD00208DF8000066
:1046B0009DF801109DF8000000F030F806469DF8C6
:1046C0000200B042D7DC00BF00982860BDF80400AB
:1046D000A8807CBD70B504460D4604B10DB901201B
:1046E00070BDAC4201D10020FAE705E0207808B99E
:1046F0000020F5E7641C6D1C2078FBF792FD064650
:104700002878FBF78EFD8642F0D02078FBF789FDF4
:1047100006462878FBF785FD301AE1E71EB503460B
:104720000EA415CC8DE8150002290CD103F5FA6210
:10473000D01702EB90708010A2EB800008B91D200A
:104740001EBD1C20FCE7012905DB0C2903DC481EEB
:104750001DF80000F4E70020F2E700001F1C1F1EF8
:104760001F1E1F1F1E1F1E1F10B5044603E04FF41F
:104770007A7000F005F8201EA4F10104F7D110BDF5
:104780002DE9F04107460C48FEF72AFA05460026B7
:104790000EE00948FEF724FA0446AC4202D3601B3F
:1047A000064403E0C5F5803020440644254600BF9A
:1047B000BE42EED3BDE8F081000800402DE9F04F85
:1047C0002DED028B85B083460C46364B0FCB01ADE9
:1047D0000FC54FF000080FE001A850F82810584608
:1047E000FFF7C4FD30B96FF0090005B0BDEC028BD6
:1047F000BDE8F08F08F10108B8F1040FECDB2AA145
:104800005846FFF7B3FD81460F222046D9F8101015
:10481000FBF73FFD0020E07326A15846FFF7A6FDF9
:1048200082460A220021DAF81000FBF71FFF064635
:10483000012E01DB022E02DD6FF00C00D5E71FA177
:104840005846FFF793FD00900098FFF77FFDB0EE0C
:10485000408AF0EE608A51EC180BFCF765F80546CB
:10486000012D02DBB5F5807F02DD6FF00A00BCE7A9
:10487000258315A15846FFF779FD074687B13846CD
:10488000FFF77DFD60B13846FFF760FDB0EE408A6E
:10489000F0EE608A51EC180BFCF765F8C4E90401EE
:1048A0000120A2E7146F0008646576696365436FB1
:1048B0006465000066727154797065006375727288
:1048C000656E74467271000074696D657374616D14
:1048D000700000002DE9F04F2DED028B85B083466E
:1048E0000C46364B0FCB01AD0FC54FF000080FE063
:1048F00001A850F828105846FFF738FD30B96FF07E
:10490000090005B0BDEC028BBDE8F08F08F101088D
:10491000B8F1040FECDB2AA15846FFF727FD8146CA
:104920000F222046D9F81010FBF7B3FC0020E073EB
:1049300026A15846FFF71AFD00900098FFF706FDE4
:10494000B0EE408AF0EE608A51EC180BFBF7ECFFFA
:104950000546012D01DBFF2D02DD6FF00A00D0E7D7
:1049600025761CA15846FFF701FD82460A22002148
:10497000DAF81000FBF77AFE0646012E01DB022E64
:1049800002DD6FF00B00BCE7667615A15846FFF715
:10499000EDFC074687B13846FFF7F1FC60B13846B9
:1049A000FFF7D4FCB0EE408AF0EE608A51EC180BB1
:1049B000FBF7D9FFC4E904010020A2E7046F000857
:1049C000646576696365436F646500006261746362
:1049D000684E6F006D6561737572654D6F6465003B
:1049E00074696D657374616D7000000070B5044684
:1049F0000D46E1B20548FEF794FB00BF8021034855
:104A0000FEF7C3FA0028F9D0204670BD001001401F
:104A10002E2070473EB505460C460BA207CA8DE80E
:104A20000700022C05D1284600F066F808B11D20C9
:104A30003EBD012C05DB0C2C03DC601E1DF80000C4
:104A4000F6E70020F4E700001F1C1F1E1F1E1F1F9B
:104A50001E1F1E1F2DE9F04105460E461746002475
:104A600005B116B90020BDE8F081AC685FB100E087
:104A700024688CB1206A78B13046216AFBF71CFCAF
:104A80000028F5D108E000E024682CB13046216A06
:104A9000FFF720FE0028F7D10CB1206A08B90020EA
:104AA000E1E72046DFE700002DE9F0410B3020F080
:104AB0000706104D19E02068B04215D3B0420AD95C
:104AC000871B201DD4F80480FBF7B1FBA019C0E9B7
:104AD0000078286004E060682860201DFBF7A7FBD1
:104AE000201D2660BDE8F081251D2C68002CE2D138
:104AF0000020F7E70001002001460A46C81701EB35
:104B000090708010A1EB800028B9642091FBF0F335
:104B100000FB131030B94FF4C87091FBF0F300FBA9
:104B2000131008B9012070470020FCE70146002956
:104B300007DD054890FBF1F201FB120008B90120E6
:104B400070470020FCE700008051010088B0FCF7AE
:104B500035FDFCF729FD4FF4E13001F099FF4FF4EA
:104B6000E13001F0EBFF4FF4165002F03DF8FDF795
:104B7000F5FEFDF7BDFEFDF76FFEFDF7EDFFFCF75F
:104B8000AEF9FDF755FA0020F74981F802020880D6
:104B90004FF40071F548FBF771FB4FF47A70FFF7A3
:104BA000E3FDFDF74DF80020EF4981F8020208808F
:104BB0004FF40071ED48FBF761FBED48FCF7BFF9DE
:104BC000EB48FCF790F9EB49E948FCF7E3F9E949D0
:104BD000E9A0FEF7C5FAEC480078E54A01460590E1
:104BE00006A8FFF759FCE94806990160BDF81C10BA
:104BF0008180E049FCF7CEF9DE49E5A0FEF7B0FA86
:104C0000EA480078DA4A0146059006A8FFF744FC16
:104C1000E74806990160BDF81C108180D549FCF772
:104C2000B9F9D449E3A0FEF79BFAD14906A8FFF7EA
:104C3000AFFCE74806990160BDF81C108180CD49A2
:104C4000FCF7A8F9CB49E3A0FEF78AFAC84906A801
:104C5000FFF7E9FCE74806990160BDF81C10818068
:104C6000C449FCF797F9C349E3A0FEF779FAC048B5
:104C7000FCF765F9BE48FCF736F9E549BC48FCF796
:104C800089F9E448FCF77AFAE349087008460078A5
:104C900038B9E0480378E1A21021E148FEF770FA44
:104CA0000BE00123DDA21021DE48FEF769FA0023A4
:104CB000DAA21021DA48FEF763FAD548D849D94A72
:104CC000CDE900210290D848D84A4FF4007103681A
:104CD000D748FEF755FAD649D6A0FDF7BDF9DAA0B8
:104CE000FEF73EFA01F095B89F4890F802020028BE
:104CF00071D0DAA0FEF734FADB4A4FF400719B481A
:104D0000FCF76AFDD949086008460168D8A0FEF79B
:104D100027FA002007900AE094490798085C0146AA
:104D20000690D8A0FEF71CFA0798401C0790079839
:104D30004028F1DBCD48006802287DD0032804D04C
:104D400009287AD00D2879D171E2CF4BCF4A4FF4A0
:104D50000071864801F0B6F90790079801283BD109
:104D6000CBA0FEF7FDF9B0480168C848FBF7A4FAEC
:104D7000A0B9C648007E0690FFF7D8FE58B1C348D8
:104D8000008B01460690C8A0FEF7EAF9BF48008BE9
:104D9000CD49086002E0CDA0FEF7E2F9CF480168F6
:104DA000BA48FBF789FA002810D1B848007E06906F
:104DB000FFF7BCFE58B1B548008B01460690C8A06D
:104DC000FEF7CEF9B148008BCD4908602EE2BFA0B6
:104DD000FEF7C6F92AE251E207980028F6D1AA4860
:104DE000407E0228F2D1A848407E01460690C5A028
:104DF000FEF7B6F9A449D1E9040102460B46CDE914
:104E00000401C8A0FEF7ACF99F49D1E90401584A52
:104E1000CDE9040101F04EFD18B17D495448FCF77D
:104E2000B9F8814801689848FBF746FA002842D152
:104E30009548007E034602E0FDE100E203E277A22E
:104E400007210690BC48FEF79BF9FCF7D5F9BB4853
:104E500080ED000A90ED000AB5EEC00AF1EE10FAFE
:104E60000CDB0068FBF797FDCDE90401B4A2CDE9A6
:104E700000010A21B448FEF783F904E00A22B3A135
:104E8000B148FBF706FAB34800686149AE4AAA4B3D
:104E9000CDE90032CDE902106348AF4A4FF400710A
:104EA00003686348FEF76CF96149ACA0FDF7D4F8DC
:104EB000AEA0FEF755F9894801687348FBF7FCF985
:104EC000002887D17048007E034654A2072106902F
:104ED000AB48FEF755F9AB49AB48FCF7FFF8AB49D7
:104EE00008700846007800283DD10120069036E081
:104EF0000698401E00EB4000A34901EB800080684B
:104F00000390FBF748FDCDE90401A1A2CDE9000122
:104F10000A21A148FEF734F940A205219F48069BCB
:104F2000FEF72EF98B48006839499C4A9A4BCDE927
:104F30000132CDE90310924800906848984A4FF436
:104F4000007103683A48FEF71BF9394995A0FDF74F
:104F500083F83220FFF708FC0698401C069006985C
:104F60000828C5DD26E129E1DC0500202403002016
:104F70008800002068050020B5B1C7B0CAB1BCE404
:104F80003A2025730A000000AC0000208E000020AB
:104F9000CFC2B4CED2BBB6D4D2BBCAFDBEDDC9CF60
:104FA000B4ABCAB1BCE43A2025730A00B0000020BB
:104FB00094000020CFC2B4CED2BBB6D4B6E0CAFDB6
:104FC000BEDDC9CFB4ABCAB1BCE4A3BA25730A0035
:104FD0009A000020CFC2B4CEB8FCD0C2C6B5C2CAB7
:104FE000BACDC5FAB4CEB5C4CAB1BCE4A3BA257370
:104FF0000A000000A0000020CFC2B4CED0A3D1E9A7
:10500000C5FAB4CECAB1BCE4A3BA25730A00000045
:1050100010010020C3000020C20000202564000011
:10502000380000202800002020000020BC7100086B
:105030002401002075702F6465766963652F737491
:105040006174757300000000C9E8B1B8D7B4CCAC86
:10505000C9CFB4ABB3C9B9A60D0A0000BCECB2E22B
:10506000B5BDCAFDBEDD0A00156A000818000020A3
:105070004D5154545F52656365697665203D202526
:10508000640A00002564200028050020480500204F
:10509000BCECB2E2B5BDC6B5C2CAB8FCB8C4CAFD64
:1050A000BEDD0D0A00000000D2BBB6D4D2BBD4A432
:1050B000B1E4C6B5B3C9B9A62CC6B5C2CACEAAA3B7
:1050C000BA25640D0A000000B40000204552525F6A
:1050D000494E56414C49445F46525100240000203D
:1050E000D2BBB6D4B6E0D4A4B1E4C6B5B3C9B9A6B0
:1050F0002CC6B5C2CACEAAA3BA25640D0A00000008
:10510000B8000020BCECB2E2B5BDBCD3B2E2CAFD2F
:10511000BEDD2C6D6561737572654D6F64653A25F2
:10512000640A000074696D657374616D703A256C72
:105130006C750D0A000000005B000020BC00002020
:10514000252E3266000000006900002032352E3026
:1051500000000000840000200471000875702F70AA
:105160006F696E742F6175746F000000D2BBB6D486
:10517000D2BBBCD3B2E2B7A2B2BCB3C9B9A60A00D3
:1051800062000020C00000207C050020C10000203B
:1051900025372E32660000007300002048000020F2
:1051A0005C71000875702F706F696E742F73656E77
:1051B000736F7200FAA0FDF7D3FF37E0012006906D
:1051C0002EE09FEDFC0B8DED000BAFF23C020A21AF
:1051D000FA48FDF7D5FFAFF2BC120521F848069B4F
:1051E000FDF7CEFFF7480068F749F54AF34BCDE9E4
:1051F0000132CDE90310F5480090F548F54A4FF427
:1052000000710368F448FDF7BBFFF349AFF26C008F
:10521000FCF722FF3220FFF7A7FA0698401C069001
:1052200006980828CDDDEDA0FDF79AFF1BE0EFA062
:10523000FDF796FF17E0F3A0FDF792FF13E0F5A04E
:10524000FDF78EFF0FE0F7A0FDF78AFF0020FE4973
:1052500081F8020208804FF40071FC48FBF70EF859
:10526000FCF7EEFC00BF00BF0020F74981F8020206
:1052700008804FF40071F548FBF700F8F448006827
:1052800001287CD1F348FBF75AFEF248FBF72BFECE
:10529000F04906A8FFF77CF9EF4806990160BDF8D0
:1052A0001C108180ED48006818B9ED480068EB4992
:1052B0000860EC48006818B9EB480068E9490860E4
:1052C000E6480068E6490860E6480068E649086084
:1052D000E048FBF734FEDF48FBF705FEE0480078C6
:1052E000DC4A0146059006A8FFF7D6F8DF48069984
:1052F0000160BDF81C108180DD49FBF74BFEDC49E5
:10530000AFF27430FDF72CFFD7480078D14A014640
:10531000059006A8FFF7C0F8D64806990160BDF8C9
:105320001C108180D249FBF735FED149D2A0FDF790
:1053300017FFD848D8A109880180D848D6A1098884
:105340000180C9480268C6480168D5A0FDF708FF7A
:10535000D24AD049DBA0FDF703FF0020BC4908601A
:10536000E0490860E0490860E048FBF707FFE049D2
:1053700008700846007850B9DC48037800E035E052
:10538000AFF268321021DB48FDF7FAFE0DE0002392
:10539000AFF278321021D848FDF7F2FE0023AFF2C9
:1053A00084321021D348FDF7EBFE8748D149D24A19
:1053B000CDE900210290D148D14A4FF40071036831
:1053C0008548FDF7DDFE8449AFF29830FCF744FED6
:1053D000AFF28C30FDF7C4FE00209B4981F8020239
:1053E00008804FF400719948FAF748FFBD480068FB
:1053F000012874D19748FBF7A2FD9648FBF773FD8F
:1054000097480078934A0146059006A8FFF744F8AC
:10541000964806990160BDF81C1081809449FBF7FD
:10542000B9FD9349AFF29840FDF79AFE6649894865
:10543000FBF7B0FDFBF7E0FEB24880ED000A90ED0F
:10544000000AB5EEC00AF1EE10FA0DDB0068FBF7BA
:10545000A2FACDE90601AFF21832CDE900010A2126
:10546000A948FDF78DFE04E00A22A8A1A648FAF794
:1054700010FFA84800685449A34A864BCDE9003282
:10548000CDE902109D48A44A4FF4007103685248C8
:10549000FDF776FE5049AFF23C30FCF7DDFD7D486C
:1054A000FBF71CF99D49086008460068401C08602D
:1054B0000846AFF29842072103687648FDF760FE80
:1054C00097A0FDF74DFE0020864908605E4981F8EF
:1054D000020208804FF400715C48FAF7CFFE824860
:1054E0000068012859D15B48FBF729FD5948FBF7B3
:1054F000FAFC5D480078574A0146059006A8FEF779
:10550000CBFF5C4806990160BDF81C1081805849AA
:10551000FBF740FD564958A0FDF722FE2A494D48A9
:10552000FBF738FD85498648FBF7D8FD85490870AB
:1055300008460078002831D10120079011E1079832
:10554000401E00EB40007E4901EB80008068039024
:10555000FBF721FACDE90401AFF2CC32CDE900012D
:105560000A211648FDF70CFEAFF2505205211448EF
:10557000079BFDF705FE674800681349104A0F4B6B
:10558000CDE90132CDE90310444800901048114A9A
:105590004FF4007103681048D6E055E1FDE00000CB
:1055A000D2BBB6D4B6E0BCD3B2E2B7A2B2BCB3C9E8
:1055B000B9A60A000000000000003240730000207D
:1055C000480000208400002010010020620000201C
:1055D000240000205C71000824010020494E56413F
:1055E0004C49442044415441210D0A00BCECB2E234
:1055F000B5BDB7FECEF1C6F7D0C4CCF8B0FC0D0AED
:10560000000000004D515454C1ACBDD3B3C9B9A67C
:105610000D0A0000BBB0CCE2B6A9D4C4B3C9B9A688
:105620000D0A0000CEB4D6AABBF2B4EDCEF34D51B4
:105630005454B0FCC0E0D0CDA3ACB3A2CAD4D6D8E9
:10564000C1AC2E2E2E0D0A00DC0500202403002004
:1056500010000020880000209A000020B4000020E4
:10566000AC000020B8000020B00000208E00002018
:105670006805002094000020CFC2B4CED2BBB6D4BF
:10568000B6E0CAFDBEDDC9CFB4ABCAB1BCE43A20B6
:1056900025730A004D000020310000005400002056
:1056A00063757272656E745F667271313D25642C2C
:1056B00063757272656E745F667271323D25640D3A
:1056C0000A00000062617463684E6F315F613D25BE
:1056D000732C62617463684E6F325F613D25730D98
:1056E0000A000000080000200C000020C300002079
:1056F000C2000020380000202800002020000020E8
:10570000BC710008BC0000206900002031302E3040
:10571000000000008000002008720008A80000209F
:10572000D2BBB6D4D2BBB0B4CAB1CAFDBEDDD2D1F1
:10573000BEADC9CFB1A80D0A00000000C000002016
:105740007C050020C1000020FDF71AFDFE49AFF2E4
:10575000AC50FCF781FC3220FFF706F80798401C9C
:105760000790079808287FF7EAAEF848FAF7B6FFDF
:10577000F749086008460068401C08600846AFF218
:10578000647207210368F148FDF7FAFCF1A0FDF708
:10579000E7FC0020F64908604CE0012007902EE06D
:1057A0009FEDF40B8DED000BAFF21C620A21F34864
:1057B000FDF7E6FCAFF29C720521F148079BFDF76F
:1057C000DFFCF0480068F049ED4AEC4BCDE90132CE
:1057D000CDE90310DD480090EC48ED4A4FF400712C
:1057E0000368D948FDF7CCFCD749AFF24860FCF715
:1057F00033FC3220FEF7B8FF0798401C079007984B
:105800000828CDDDD148FAF769FFD149086008467C
:105810000068401C08600846AFF6000207210368D4
:10582000CA48FDF7ADFC0020D1490860AFF2542012
:10583000FDF796FC0020D74981F8020208804FF45A
:105840000071D548FAF71AFDD4480068012840D104
:105850004102D348FCF7ECF80790D148079901F0D2
:105860000DF9D0A0FDF77CFC4FF47A70FEF77CFFB9
:10587000D14A4FF40071C848FBF7AEFF0D2804D1A0
:10588000AFF29820FDF76CFC16E0002006900BE0CC
:10589000C1490698085C01460590AFF61800FDF76F
:1058A0005FFC0698401C069006984028F0DBC3A0D9
:1058B000FDF756FCFCF7C4F90020B8490860B5496B
:1058C00081F8020208804FF40071B348FAF7D6FC61
:1058D00000BFC248006801287ED1C148FAF7FEFE29
:1058E000401E9B49086008460068BE490968884216
:1058F0006ADABD48FBF723FBBB48FBF7F4FAB9486B
:105900000078B94A0146059006A8FEF7C5FDB748DC
:1059100006990160BDF81C108180B549FBF73AFB80
:10592000B349AFF69410FDF71BFC9749AE48FBF75F
:1059300031FBFBF761FCAF4880ED000A90ED000AF7
:10594000B5EEC00AF1EE10FA0DDB0068FBF723F8A4
:10595000CDE90601AFF61802CDE900010A21A648FB
:10596000FDF70EFC05E00A22AFF26021A248FAF72B
:1059700090FC8448006884499F4A994BCDE90032E5
:10598000CDE902109D489E4A4FF4007103686E48AD
:10599000FDF7F6FB6C49AFF63C00FCF75DFB904869
:1059A000FAF79CFE6A49086008460068401C0860D7
:1059B0000846AFF69812072103688948FDF7E0FB17
:1059C000AFF2A420FDF7CCFB6048FAF787FE401E3B
:1059D0005F490860084600E063E10068894909689A
:1059E00088427CDA8048FBF7AAFA7F48FBF77BFA0B
:1059F000844800787C4A0146059006A8FEF74CFDD5
:105A0000814806990160BDF81C1081807849FBF738
:105A1000C1FA7749AFF2A030FDF7A2FB5A497248AC
:105A2000FBF7B8FA79497A48FBF758FB79490870CF
:105A300008460078002859D10120079039E00798DE
:105A4000401E00EB4000724901EB8000806803902B
:105A5000FAF7A1FFCDE90401AFF6CC02CDE90001D0
:105A60000A214648FDF78CFBAFF650220521444839
:105A7000079BFDF785FB434800684349404A3F4B7D
:105A8000CDE90132CDE90310304800903F48404A4B
:105A90004FF4007103682C48FDF772FB2A49AFF6FA
:105AA000FC00FCF7D9FA3220FEF75EFE0798401C96
:105AB000079007980828C2DD2448FAF70FFE24490A
:105AC000086008460068401C08600846AFF6B4222B
:105AD000072103681D48FDF753FB1EA000E0BCE052
